{
	"Mappings.sol": {
		"Votacion": {
			"abi": [
				{
					"inputs": [
						{
							"internalType": "address",
							"name": "candidato",
							"type": "address"
						}
					],
					"name": "obtenerVotos",
					"outputs": [
						{
							"internalType": "uint256",
							"name": "",
							"type": "uint256"
						}
					],
					"stateMutability": "view",
					"type": "function"
				},
				{
					"inputs": [
						{
							"internalType": "address",
							"name": "votante",
							"type": "address"
						}
					],
					"name": "verificarSiVoto",
					"outputs": [
						{
							"internalType": "bool",
							"name": "",
							"type": "bool"
						}
					],
					"stateMutability": "view",
					"type": "function"
				},
				{
					"inputs": [
						{
							"internalType": "address",
							"name": "candidato",
							"type": "address"
						}
					],
					"name": "votar",
					"outputs": [],
					"stateMutability": "nonpayable",
					"type": "function"
				},
				{
					"inputs": [
						{
							"internalType": "address",
							"name": "",
							"type": "address"
						}
					],
					"name": "votos",
					"outputs": [
						{
							"internalType": "uint256",
							"name": "",
							"type": "uint256"
						}
					],
					"stateMutability": "view",
					"type": "function"
				},
				{
					"inputs": [
						{
							"internalType": "address",
							"name": "",
							"type": "address"
						}
					],
					"name": "yaVoto",
					"outputs": [
						{
							"internalType": "bool",
							"name": "",
							"type": "bool"
						}
					],
					"stateMutability": "view",
					"type": "function"
				}
			],
			"devdoc": {
				"kind": "dev",
				"methods": {},
				"version": 1
			},
			"evm": {
				"assembly": "    /* \"Mappings.sol\":60:1766  contract Votacion {... */\n  mstore(0x40, 0x80)\n  callvalue\n  dup1\n  iszero\n  tag_1\n  jumpi\n  0x00\n  dup1\n  revert\ntag_1:\n  pop\n  dataSize(sub_0)\n  dup1\n  dataOffset(sub_0)\n  0x00\n  codecopy\n  0x00\n  return\nstop\n\nsub_0: assembly {\n        /* \"Mappings.sol\":60:1766  contract Votacion {... */\n      mstore(0x40, 0x80)\n      callvalue\n      dup1\n      iszero\n      tag_1\n      jumpi\n      0x00\n      dup1\n      revert\n    tag_1:\n      pop\n      jumpi(tag_2, lt(calldatasize, 0x04))\n      shr(0xe0, calldataload(0x00))\n      dup1\n      0x38ba84d8\n      eq\n      tag_3\n      jumpi\n      dup1\n      0x9332d2e6\n      eq\n      tag_4\n      jumpi\n      dup1\n      0x996ee408\n      eq\n      tag_5\n      jumpi\n      dup1\n      0xb72c41e2\n      eq\n      tag_6\n      jumpi\n      dup1\n      0xf0b0bb28\n      eq\n      tag_7\n      jumpi\n    tag_2:\n      0x00\n      dup1\n      revert\n        /* \"Mappings.sol\":1650:1763  function obtenerVotos(address candidato) public view returns (uint256) {... */\n    tag_3:\n      tag_8\n      0x04\n      dup1\n      calldatasize\n      sub\n      dup2\n      add\n      swap1\n      tag_9\n      swap2\n      swap1\n      tag_10\n      jump\t// in\n    tag_9:\n      tag_11\n      jump\t// in\n    tag_8:\n      mload(0x40)\n      tag_12\n      swap2\n      swap1\n      tag_13\n      jump\t// in\n    tag_12:\n      mload(0x40)\n      dup1\n      swap2\n      sub\n      swap1\n      return\n        /* \"Mappings.sol\":508:1048  function votar(address candidato) public {... */\n    tag_4:\n      tag_14\n      0x04\n      dup1\n      calldatasize\n      sub\n      dup2\n      add\n      swap1\n      tag_15\n      swap2\n      swap1\n      tag_10\n      jump\t// in\n    tag_15:\n      tag_16\n      jump\t// in\n    tag_14:\n      stop\n        /* \"Mappings.sol\":225:266  mapping (address => uint256) public votos */\n    tag_5:\n      tag_17\n      0x04\n      dup1\n      calldatasize\n      sub\n      dup2\n      add\n      swap1\n      tag_18\n      swap2\n      swap1\n      tag_10\n      jump\t// in\n    tag_18:\n      tag_19\n      jump\t// in\n    tag_17:\n      mload(0x40)\n      tag_20\n      swap2\n      swap1\n      tag_13\n      jump\t// in\n    tag_20:\n      mload(0x40)\n      dup1\n      swap2\n      sub\n      swap1\n      return\n        /* \"Mappings.sol\":1244:1354  function verificarSiVoto(address votante) public view returns (bool) {... */\n    tag_6:\n      tag_21\n      0x04\n      dup1\n      calldatasize\n      sub\n      dup2\n      add\n      swap1\n      tag_22\n      swap2\n      swap1\n      tag_10\n      jump\t// in\n    tag_22:\n      tag_23\n      jump\t// in\n    tag_21:\n      mload(0x40)\n      tag_24\n      swap2\n      swap1\n      tag_25\n      jump\t// in\n    tag_24:\n      mload(0x40)\n      dup1\n      swap2\n      sub\n      swap1\n      return\n        /* \"Mappings.sol\":415:454  mapping (address => bool) public yaVoto */\n    tag_7:\n      tag_26\n      0x04\n      dup1\n      calldatasize\n      sub\n      dup2\n      add\n      swap1\n      tag_27\n      swap2\n      swap1\n      tag_10\n      jump\t// in\n    tag_27:\n      tag_28\n      jump\t// in\n    tag_26:\n      mload(0x40)\n      tag_29\n      swap2\n      swap1\n      tag_25\n      jump\t// in\n    tag_29:\n      mload(0x40)\n      dup1\n      swap2\n      sub\n      swap1\n      return\n        /* \"Mappings.sol\":1650:1763  function obtenerVotos(address candidato) public view returns (uint256) {... */\n    tag_11:\n        /* \"Mappings.sol\":1712:1719  uint256 */\n      0x00\n        /* \"Mappings.sol\":1739:1744  votos */\n      dup1\n        /* \"Mappings.sol\":1739:1755  votos[candidato] */\n      0x00\n        /* \"Mappings.sol\":1745:1754  candidato */\n      dup4\n        /* \"Mappings.sol\":1739:1755  votos[candidato] */\n      0xffffffffffffffffffffffffffffffffffffffff\n      and\n      0xffffffffffffffffffffffffffffffffffffffff\n      and\n      dup2\n      mstore\n      0x20\n      add\n      swap1\n      dup2\n      mstore\n      0x20\n      add\n      0x00\n      keccak256\n      sload\n        /* \"Mappings.sol\":1732:1755  return votos[candidato] */\n      swap1\n      pop\n        /* \"Mappings.sol\":1650:1763  function obtenerVotos(address candidato) public view returns (uint256) {... */\n      swap2\n      swap1\n      pop\n      jump\t// out\n        /* \"Mappings.sol\":508:1048  function votar(address candidato) public {... */\n    tag_16:\n        /* \"Mappings.sol\":782:788  yaVoto */\n      0x01\n        /* \"Mappings.sol\":782:800  yaVoto[msg.sender] */\n      0x00\n        /* \"Mappings.sol\":789:799  msg.sender */\n      caller\n        /* \"Mappings.sol\":782:800  yaVoto[msg.sender] */\n      0xffffffffffffffffffffffffffffffffffffffff\n      and\n      0xffffffffffffffffffffffffffffffffffffffff\n      and\n      dup2\n      mstore\n      0x20\n      add\n      swap1\n      dup2\n      mstore\n      0x20\n      add\n      0x00\n      keccak256\n      0x00\n      swap1\n      sload\n      swap1\n      0x0100\n      exp\n      swap1\n      div\n      0xff\n      and\n        /* \"Mappings.sol\":781:800  !yaVoto[msg.sender] */\n      iszero\n        /* \"Mappings.sol\":773:832  require(!yaVoto[msg.sender], \"Ya has votado anteriormente\") */\n      tag_32\n      jumpi\n      mload(0x40)\n      0x08c379a000000000000000000000000000000000000000000000000000000000\n      dup2\n      mstore\n      0x04\n      add\n      tag_33\n      swap1\n      tag_34\n      jump\t// in\n    tag_33:\n      mload(0x40)\n      dup1\n      swap2\n      sub\n      swap1\n      revert\n    tag_32:\n        /* \"Mappings.sol\":864:868  true */\n      0x01\n        /* \"Mappings.sol\":843:849  yaVoto */\n      dup1\n        /* \"Mappings.sol\":843:861  yaVoto[msg.sender] */\n      0x00\n        /* \"Mappings.sol\":850:860  msg.sender */\n      caller\n        /* \"Mappings.sol\":843:861  yaVoto[msg.sender] */\n      0xffffffffffffffffffffffffffffffffffffffff\n      and\n      0xffffffffffffffffffffffffffffffffffffffff\n      and\n      dup2\n      mstore\n      0x20\n      add\n      swap1\n      dup2\n      mstore\n      0x20\n      add\n      0x00\n      keccak256\n      0x00\n        /* \"Mappings.sol\":843:868  yaVoto[msg.sender] = true */\n      0x0100\n      exp\n      dup2\n      sload\n      dup2\n      0xff\n      mul\n      not\n      and\n      swap1\n      dup4\n      iszero\n      iszero\n      mul\n      or\n      swap1\n      sstore\n      pop\n        /* \"Mappings.sol\":1022:1027  votos */\n      0x00\n        /* \"Mappings.sol\":1022:1038  votos[candidato] */\n      dup1\n        /* \"Mappings.sol\":1028:1037  candidato */\n      dup3\n        /* \"Mappings.sol\":1022:1038  votos[candidato] */\n      0xffffffffffffffffffffffffffffffffffffffff\n      and\n      0xffffffffffffffffffffffffffffffffffffffff\n      and\n      dup2\n      mstore\n      0x20\n      add\n      swap1\n      dup2\n      mstore\n      0x20\n      add\n      0x00\n      keccak256\n      0x00\n        /* \"Mappings.sol\":1022:1040  votos[candidato]++ */\n      dup2\n      sload\n      dup1\n      swap3\n      swap2\n      swap1\n      tag_35\n      swap1\n      tag_36\n      jump\t// in\n    tag_35:\n      swap2\n      swap1\n      pop\n      sstore\n      pop\n        /* \"Mappings.sol\":508:1048  function votar(address candidato) public {... */\n      pop\n      jump\t// out\n        /* \"Mappings.sol\":225:266  mapping (address => uint256) public votos */\n    tag_19:\n      mstore(0x20, 0x00)\n      dup1\n      0x00\n      mstore\n      keccak256(0x00, 0x40)\n      0x00\n      swap2\n      pop\n      swap1\n      pop\n      sload\n      dup2\n      jump\t// out\n        /* \"Mappings.sol\":1244:1354  function verificarSiVoto(address votante) public view returns (bool) {... */\n    tag_23:\n        /* \"Mappings.sol\":1307:1311  bool */\n      0x00\n        /* \"Mappings.sol\":1331:1337  yaVoto */\n      0x01\n        /* \"Mappings.sol\":1331:1346  yaVoto[votante] */\n      0x00\n        /* \"Mappings.sol\":1338:1345  votante */\n      dup4\n        /* \"Mappings.sol\":1331:1346  yaVoto[votante] */\n      0xffffffffffffffffffffffffffffffffffffffff\n      and\n      0xffffffffffffffffffffffffffffffffffffffff\n      and\n      dup2\n      mstore\n      0x20\n      add\n      swap1\n      dup2\n      mstore\n      0x20\n      add\n      0x00\n      keccak256\n      0x00\n      swap1\n      sload\n      swap1\n      0x0100\n      exp\n      swap1\n      div\n      0xff\n      and\n        /* \"Mappings.sol\":1324:1346  return yaVoto[votante] */\n      swap1\n      pop\n        /* \"Mappings.sol\":1244:1354  function verificarSiVoto(address votante) public view returns (bool) {... */\n      swap2\n      swap1\n      pop\n      jump\t// out\n        /* \"Mappings.sol\":415:454  mapping (address => bool) public yaVoto */\n    tag_28:\n      mstore(0x20, 0x01)\n      dup1\n      0x00\n      mstore\n      keccak256(0x00, 0x40)\n      0x00\n      swap2\n      pop\n      sload\n      swap1\n      0x0100\n      exp\n      swap1\n      div\n      0xff\n      and\n      dup2\n      jump\t// out\n        /* \"#utility.yul\":88:205   */\n    tag_39:\n        /* \"#utility.yul\":197:198   */\n      0x00\n        /* \"#utility.yul\":194:195   */\n      dup1\n        /* \"#utility.yul\":187:199   */\n      revert\n        /* \"#utility.yul\":334:460   */\n    tag_41:\n        /* \"#utility.yul\":371:378   */\n      0x00\n        /* \"#utility.yul\":411:453   */\n      0xffffffffffffffffffffffffffffffffffffffff\n        /* \"#utility.yul\":404:409   */\n      dup3\n        /* \"#utility.yul\":400:454   */\n      and\n        /* \"#utility.yul\":389:454   */\n      swap1\n      pop\n        /* \"#utility.yul\":334:460   */\n      swap2\n      swap1\n      pop\n      jump\t// out\n        /* \"#utility.yul\":466:562   */\n    tag_42:\n        /* \"#utility.yul\":503:510   */\n      0x00\n        /* \"#utility.yul\":532:556   */\n      tag_59\n        /* \"#utility.yul\":550:555   */\n      dup3\n        /* \"#utility.yul\":532:556   */\n      tag_41\n      jump\t// in\n    tag_59:\n        /* \"#utility.yul\":521:556   */\n      swap1\n      pop\n        /* \"#utility.yul\":466:562   */\n      swap2\n      swap1\n      pop\n      jump\t// out\n        /* \"#utility.yul\":568:690   */\n    tag_43:\n        /* \"#utility.yul\":641:665   */\n      tag_61\n        /* \"#utility.yul\":659:664   */\n      dup2\n        /* \"#utility.yul\":641:665   */\n      tag_42\n      jump\t// in\n    tag_61:\n        /* \"#utility.yul\":634:639   */\n      dup2\n        /* \"#utility.yul\":631:666   */\n      eq\n        /* \"#utility.yul\":621:684   */\n      tag_62\n      jumpi\n        /* \"#utility.yul\":680:681   */\n      0x00\n        /* \"#utility.yul\":677:678   */\n      dup1\n        /* \"#utility.yul\":670:682   */\n      revert\n        /* \"#utility.yul\":621:684   */\n    tag_62:\n        /* \"#utility.yul\":568:690   */\n      pop\n      jump\t// out\n        /* \"#utility.yul\":696:835   */\n    tag_44:\n        /* \"#utility.yul\":742:747   */\n      0x00\n        /* \"#utility.yul\":780:786   */\n      dup2\n        /* \"#utility.yul\":767:787   */\n      calldataload\n        /* \"#utility.yul\":758:787   */\n      swap1\n      pop\n        /* \"#utility.yul\":796:829   */\n      tag_64\n        /* \"#utility.yul\":823:828   */\n      dup2\n        /* \"#utility.yul\":796:829   */\n      tag_43\n      jump\t// in\n    tag_64:\n        /* \"#utility.yul\":696:835   */\n      swap3\n      swap2\n      pop\n      pop\n      jump\t// out\n        /* \"#utility.yul\":841:1170   */\n    tag_10:\n        /* \"#utility.yul\":900:906   */\n      0x00\n        /* \"#utility.yul\":949:951   */\n      0x20\n        /* \"#utility.yul\":937:946   */\n      dup3\n        /* \"#utility.yul\":928:935   */\n      dup5\n        /* \"#utility.yul\":924:947   */\n      sub\n        /* \"#utility.yul\":920:952   */\n      slt\n        /* \"#utility.yul\":917:1036   */\n      iszero\n      tag_66\n      jumpi\n        /* \"#utility.yul\":955:1034   */\n      tag_67\n      tag_39\n      jump\t// in\n    tag_67:\n        /* \"#utility.yul\":917:1036   */\n    tag_66:\n        /* \"#utility.yul\":1075:1076   */\n      0x00\n        /* \"#utility.yul\":1100:1153   */\n      tag_68\n        /* \"#utility.yul\":1145:1152   */\n      dup5\n        /* \"#utility.yul\":1136:1142   */\n      dup3\n        /* \"#utility.yul\":1125:1134   */\n      dup6\n        /* \"#utility.yul\":1121:1143   */\n      add\n        /* \"#utility.yul\":1100:1153   */\n      tag_44\n      jump\t// in\n    tag_68:\n        /* \"#utility.yul\":1090:1153   */\n      swap2\n      pop\n        /* \"#utility.yul\":1046:1163   */\n      pop\n        /* \"#utility.yul\":841:1170   */\n      swap3\n      swap2\n      pop\n      pop\n      jump\t// out\n        /* \"#utility.yul\":1176:1253   */\n    tag_45:\n        /* \"#utility.yul\":1213:1220   */\n      0x00\n        /* \"#utility.yul\":1242:1247   */\n      dup2\n        /* \"#utility.yul\":1231:1247   */\n      swap1\n      pop\n        /* \"#utility.yul\":1176:1253   */\n      swap2\n      swap1\n      pop\n      jump\t// out\n        /* \"#utility.yul\":1259:1377   */\n    tag_46:\n        /* \"#utility.yul\":1346:1370   */\n      tag_71\n        /* \"#utility.yul\":1364:1369   */\n      dup2\n        /* \"#utility.yul\":1346:1370   */\n      tag_45\n      jump\t// in\n    tag_71:\n        /* \"#utility.yul\":1341:1344   */\n      dup3\n        /* \"#utility.yul\":1334:1371   */\n      mstore\n        /* \"#utility.yul\":1259:1377   */\n      pop\n      pop\n      jump\t// out\n        /* \"#utility.yul\":1383:1605   */\n    tag_13:\n        /* \"#utility.yul\":1476:1480   */\n      0x00\n        /* \"#utility.yul\":1514:1516   */\n      0x20\n        /* \"#utility.yul\":1503:1512   */\n      dup3\n        /* \"#utility.yul\":1499:1517   */\n      add\n        /* \"#utility.yul\":1491:1517   */\n      swap1\n      pop\n        /* \"#utility.yul\":1527:1598   */\n      tag_73\n        /* \"#utility.yul\":1595:1596   */\n      0x00\n        /* \"#utility.yul\":1584:1593   */\n      dup4\n        /* \"#utility.yul\":1580:1597   */\n      add\n        /* \"#utility.yul\":1571:1577   */\n      dup5\n        /* \"#utility.yul\":1527:1598   */\n      tag_46\n      jump\t// in\n    tag_73:\n        /* \"#utility.yul\":1383:1605   */\n      swap3\n      swap2\n      pop\n      pop\n      jump\t// out\n        /* \"#utility.yul\":1611:1701   */\n    tag_47:\n        /* \"#utility.yul\":1645:1652   */\n      0x00\n        /* \"#utility.yul\":1688:1693   */\n      dup2\n        /* \"#utility.yul\":1681:1694   */\n      iszero\n        /* \"#utility.yul\":1674:1695   */\n      iszero\n        /* \"#utility.yul\":1663:1695   */\n      swap1\n      pop\n        /* \"#utility.yul\":1611:1701   */\n      swap2\n      swap1\n      pop\n      jump\t// out\n        /* \"#utility.yul\":1707:1816   */\n    tag_48:\n        /* \"#utility.yul\":1788:1809   */\n      tag_76\n        /* \"#utility.yul\":1803:1808   */\n      dup2\n        /* \"#utility.yul\":1788:1809   */\n      tag_47\n      jump\t// in\n    tag_76:\n        /* \"#utility.yul\":1783:1786   */\n      dup3\n        /* \"#utility.yul\":1776:1810   */\n      mstore\n        /* \"#utility.yul\":1707:1816   */\n      pop\n      pop\n      jump\t// out\n        /* \"#utility.yul\":1822:2032   */\n    tag_25:\n        /* \"#utility.yul\":1909:1913   */\n      0x00\n        /* \"#utility.yul\":1947:1949   */\n      0x20\n        /* \"#utility.yul\":1936:1945   */\n      dup3\n        /* \"#utility.yul\":1932:1950   */\n      add\n        /* \"#utility.yul\":1924:1950   */\n      swap1\n      pop\n        /* \"#utility.yul\":1960:2025   */\n      tag_78\n        /* \"#utility.yul\":2022:2023   */\n      0x00\n        /* \"#utility.yul\":2011:2020   */\n      dup4\n        /* \"#utility.yul\":2007:2024   */\n      add\n        /* \"#utility.yul\":1998:2004   */\n      dup5\n        /* \"#utility.yul\":1960:2025   */\n      tag_48\n      jump\t// in\n    tag_78:\n        /* \"#utility.yul\":1822:2032   */\n      swap3\n      swap2\n      pop\n      pop\n      jump\t// out\n        /* \"#utility.yul\":2038:2207   */\n    tag_49:\n        /* \"#utility.yul\":2122:2133   */\n      0x00\n        /* \"#utility.yul\":2156:2162   */\n      dup3\n        /* \"#utility.yul\":2151:2154   */\n      dup3\n        /* \"#utility.yul\":2144:2163   */\n      mstore\n        /* \"#utility.yul\":2196:2200   */\n      0x20\n        /* \"#utility.yul\":2191:2194   */\n      dup3\n        /* \"#utility.yul\":2187:2201   */\n      add\n        /* \"#utility.yul\":2172:2201   */\n      swap1\n      pop\n        /* \"#utility.yul\":2038:2207   */\n      swap3\n      swap2\n      pop\n      pop\n      jump\t// out\n        /* \"#utility.yul\":2213:2390   */\n    tag_50:\n        /* \"#utility.yul\":2353:2382   */\n      0x59612068617320766f7461646f20616e746572696f726d656e74650000000000\n        /* \"#utility.yul\":2349:2350   */\n      0x00\n        /* \"#utility.yul\":2341:2347   */\n      dup3\n        /* \"#utility.yul\":2337:2351   */\n      add\n        /* \"#utility.yul\":2330:2383   */\n      mstore\n        /* \"#utility.yul\":2213:2390   */\n      pop\n      jump\t// out\n        /* \"#utility.yul\":2396:2762   */\n    tag_51:\n        /* \"#utility.yul\":2538:2541   */\n      0x00\n        /* \"#utility.yul\":2559:2626   */\n      tag_82\n        /* \"#utility.yul\":2623:2625   */\n      0x1b\n        /* \"#utility.yul\":2618:2621   */\n      dup4\n        /* \"#utility.yul\":2559:2626   */\n      tag_49\n      jump\t// in\n    tag_82:\n        /* \"#utility.yul\":2552:2626   */\n      swap2\n      pop\n        /* \"#utility.yul\":2635:2728   */\n      tag_83\n        /* \"#utility.yul\":2724:2727   */\n      dup3\n        /* \"#utility.yul\":2635:2728   */\n      tag_50\n      jump\t// in\n    tag_83:\n        /* \"#utility.yul\":2753:2755   */\n      0x20\n        /* \"#utility.yul\":2748:2751   */\n      dup3\n        /* \"#utility.yul\":2744:2756   */\n      add\n        /* \"#utility.yul\":2737:2756   */\n      swap1\n      pop\n        /* \"#utility.yul\":2396:2762   */\n      swap2\n      swap1\n      pop\n      jump\t// out\n        /* \"#utility.yul\":2768:3187   */\n    tag_34:\n        /* \"#utility.yul\":2934:2938   */\n      0x00\n        /* \"#utility.yul\":2972:2974   */\n      0x20\n        /* \"#utility.yul\":2961:2970   */\n      dup3\n        /* \"#utility.yul\":2957:2975   */\n      add\n        /* \"#utility.yul\":2949:2975   */\n      swap1\n      pop\n        /* \"#utility.yul\":3021:3030   */\n      dup2\n        /* \"#utility.yul\":3015:3019   */\n      dup2\n        /* \"#utility.yul\":3011:3031   */\n      sub\n        /* \"#utility.yul\":3007:3008   */\n      0x00\n        /* \"#utility.yul\":2996:3005   */\n      dup4\n        /* \"#utility.yul\":2992:3009   */\n      add\n        /* \"#utility.yul\":2985:3032   */\n      mstore\n        /* \"#utility.yul\":3049:3180   */\n      tag_85\n        /* \"#utility.yul\":3175:3179   */\n      dup2\n        /* \"#utility.yul\":3049:3180   */\n      tag_51\n      jump\t// in\n    tag_85:\n        /* \"#utility.yul\":3041:3180   */\n      swap1\n      pop\n        /* \"#utility.yul\":2768:3187   */\n      swap2\n      swap1\n      pop\n      jump\t// out\n        /* \"#utility.yul\":3193:3373   */\n    tag_52:\n        /* \"#utility.yul\":3241:3318   */\n      0x4e487b7100000000000000000000000000000000000000000000000000000000\n        /* \"#utility.yul\":3238:3239   */\n      0x00\n        /* \"#utility.yul\":3231:3319   */\n      mstore\n        /* \"#utility.yul\":3338:3342   */\n      0x11\n        /* \"#utility.yul\":3335:3336   */\n      0x04\n        /* \"#utility.yul\":3328:3343   */\n      mstore\n        /* \"#utility.yul\":3362:3366   */\n      0x24\n        /* \"#utility.yul\":3359:3360   */\n      0x00\n        /* \"#utility.yul\":3352:3367   */\n      revert\n        /* \"#utility.yul\":3379:3612   */\n    tag_36:\n        /* \"#utility.yul\":3418:3421   */\n      0x00\n        /* \"#utility.yul\":3441:3465   */\n      tag_88\n        /* \"#utility.yul\":3459:3464   */\n      dup3\n        /* \"#utility.yul\":3441:3465   */\n      tag_45\n      jump\t// in\n    tag_88:\n        /* \"#utility.yul\":3432:3465   */\n      swap2\n      pop\n        /* \"#utility.yul\":3487:3553   */\n      0xffffffffffffffffffffffffffffffffffffffffffffffffffffffffffffffff\n        /* \"#utility.yul\":3480:3485   */\n      dup3\n        /* \"#utility.yul\":3477:3554   */\n      sub\n        /* \"#utility.yul\":3474:3577   */\n      tag_89\n      jumpi\n        /* \"#utility.yul\":3557:3575   */\n      tag_90\n      tag_52\n      jump\t// in\n    tag_90:\n        /* \"#utility.yul\":3474:3577   */\n    tag_89:\n        /* \"#utility.yul\":3604:3605   */\n      0x01\n        /* \"#utility.yul\":3597:3602   */\n      dup3\n        /* \"#utility.yul\":3593:3606   */\n      add\n        /* \"#utility.yul\":3586:3606   */\n      swap1\n      pop\n        /* \"#utility.yul\":3379:3612   */\n      swap2\n      swap1\n      pop\n      jump\t// out\n\n    auxdata: 0xa264697066735822122012ea03dee0beb456a667bfa9526a2cc124f78cd3f2412b7be39c003ba0aa2c6764736f6c63430008180033\n}\n",
				"bytecode": {
					"linkReferences": {},
					"object": "608060405234801561000f575f80fd5b5061053e8061001d5f395ff3fe608060405234801561000f575f80fd5b5060043610610055575f3560e01c806338ba84d8146100595780639332d2e614610089578063996ee408146100a5578063b72c41e2146100d5578063f0b0bb2814610105575b5f80fd5b610073600480360381019061006e919061038d565b610135565b60405161008091906103d0565b60405180910390f35b6100a3600480360381019061009e919061038d565b61017a565b005b6100bf60048036038101906100ba919061038d565b6102ac565b6040516100cc91906103d0565b60405180910390f35b6100ef60048036038101906100ea919061038d565b6102c0565b6040516100fc9190610403565b60405180910390f35b61011f600480360381019061011a919061038d565b610312565b60405161012c9190610403565b60405180910390f35b5f805f8373ffffffffffffffffffffffffffffffffffffffff1673ffffffffffffffffffffffffffffffffffffffff1681526020019081526020015f20549050919050565b60015f3373ffffffffffffffffffffffffffffffffffffffff1673ffffffffffffffffffffffffffffffffffffffff1681526020019081526020015f205f9054906101000a900460ff1615610204576040517f08c379a00000000000000000000000000000000000000000000000000000000081526004016101fb90610476565b60405180910390fd5b6001805f3373ffffffffffffffffffffffffffffffffffffffff1673ffffffffffffffffffffffffffffffffffffffff1681526020019081526020015f205f6101000a81548160ff0219169083151502179055505f808273ffffffffffffffffffffffffffffffffffffffff1673ffffffffffffffffffffffffffffffffffffffff1681526020019081526020015f205f8154809291906102a4906104c1565b919050555050565b5f602052805f5260405f205f915090505481565b5f60015f8373ffffffffffffffffffffffffffffffffffffffff1673ffffffffffffffffffffffffffffffffffffffff1681526020019081526020015f205f9054906101000a900460ff169050919050565b6001602052805f5260405f205f915054906101000a900460ff1681565b5f80fd5b5f73ffffffffffffffffffffffffffffffffffffffff82169050919050565b5f61035c82610333565b9050919050565b61036c81610352565b8114610376575f80fd5b50565b5f8135905061038781610363565b92915050565b5f602082840312156103a2576103a161032f565b5b5f6103af84828501610379565b91505092915050565b5f819050919050565b6103ca816103b8565b82525050565b5f6020820190506103e35f8301846103c1565b92915050565b5f8115159050919050565b6103fd816103e9565b82525050565b5f6020820190506104165f8301846103f4565b92915050565b5f82825260208201905092915050565b7f59612068617320766f7461646f20616e746572696f726d656e746500000000005f82015250565b5f610460601b8361041c565b915061046b8261042c565b602082019050919050565b5f6020820190508181035f83015261048d81610454565b9050919050565b7f4e487b71000000000000000000000000000000000000000000000000000000005f52601160045260245ffd5b5f6104cb826103b8565b91507fffffffffffffffffffffffffffffffffffffffffffffffffffffffffffffffff82036104fd576104fc610494565b5b60018201905091905056fea264697066735822122012ea03dee0beb456a667bfa9526a2cc124f78cd3f2412b7be39c003ba0aa2c6764736f6c63430008180033",
					"opcodes": "PUSH1 0x80 PUSH1 0x40 MSTORE CALLVALUE DUP1 ISZERO PUSH2 0xF JUMPI PUSH0 DUP1 REVERT JUMPDEST POP PUSH2 0x53E DUP1 PUSH2 0x1D PUSH0 CODECOPY PUSH0 RETURN INVALID PUSH1 0x80 PUSH1 0x40 MSTORE CALLVALUE DUP1 ISZERO PUSH2 0xF JUMPI PUSH0 DUP1 REVERT JUMPDEST POP PUSH1 0x4 CALLDATASIZE LT PUSH2 0x55 JUMPI PUSH0 CALLDATALOAD PUSH1 0xE0 SHR DUP1 PUSH4 0x38BA84D8 EQ PUSH2 0x59 JUMPI DUP1 PUSH4 0x9332D2E6 EQ PUSH2 0x89 JUMPI DUP1 PUSH4 0x996EE408 EQ PUSH2 0xA5 JUMPI DUP1 PUSH4 0xB72C41E2 EQ PUSH2 0xD5 JUMPI DUP1 PUSH4 0xF0B0BB28 EQ PUSH2 0x105 JUMPI JUMPDEST PUSH0 DUP1 REVERT JUMPDEST PUSH2 0x73 PUSH1 0x4 DUP1 CALLDATASIZE SUB DUP2 ADD SWAP1 PUSH2 0x6E SWAP2 SWAP1 PUSH2 0x38D JUMP JUMPDEST PUSH2 0x135 JUMP JUMPDEST PUSH1 0x40 MLOAD PUSH2 0x80 SWAP2 SWAP1 PUSH2 0x3D0 JUMP JUMPDEST PUSH1 0x40 MLOAD DUP1 SWAP2 SUB SWAP1 RETURN JUMPDEST PUSH2 0xA3 PUSH1 0x4 DUP1 CALLDATASIZE SUB DUP2 ADD SWAP1 PUSH2 0x9E SWAP2 SWAP1 PUSH2 0x38D JUMP JUMPDEST PUSH2 0x17A JUMP JUMPDEST STOP JUMPDEST PUSH2 0xBF PUSH1 0x4 DUP1 CALLDATASIZE SUB DUP2 ADD SWAP1 PUSH2 0xBA SWAP2 SWAP1 PUSH2 0x38D JUMP JUMPDEST PUSH2 0x2AC JUMP JUMPDEST PUSH1 0x40 MLOAD PUSH2 0xCC SWAP2 SWAP1 PUSH2 0x3D0 JUMP JUMPDEST PUSH1 0x40 MLOAD DUP1 SWAP2 SUB SWAP1 RETURN JUMPDEST PUSH2 0xEF PUSH1 0x4 DUP1 CALLDATASIZE SUB DUP2 ADD SWAP1 PUSH2 0xEA SWAP2 SWAP1 PUSH2 0x38D JUMP JUMPDEST PUSH2 0x2C0 JUMP JUMPDEST PUSH1 0x40 MLOAD PUSH2 0xFC SWAP2 SWAP1 PUSH2 0x403 JUMP JUMPDEST PUSH1 0x40 MLOAD DUP1 SWAP2 SUB SWAP1 RETURN JUMPDEST PUSH2 0x11F PUSH1 0x4 DUP1 CALLDATASIZE SUB DUP2 ADD SWAP1 PUSH2 0x11A SWAP2 SWAP1 PUSH2 0x38D JUMP JUMPDEST PUSH2 0x312 JUMP JUMPDEST PUSH1 0x40 MLOAD PUSH2 0x12C SWAP2 SWAP1 PUSH2 0x403 JUMP JUMPDEST PUSH1 0x40 MLOAD DUP1 SWAP2 SUB SWAP1 RETURN JUMPDEST PUSH0 DUP1 PUSH0 DUP4 PUSH20 0xFFFFFFFFFFFFFFFFFFFFFFFFFFFFFFFFFFFFFFFF AND PUSH20 0xFFFFFFFFFFFFFFFFFFFFFFFFFFFFFFFFFFFFFFFF AND DUP2 MSTORE PUSH1 0x20 ADD SWAP1 DUP2 MSTORE PUSH1 0x20 ADD PUSH0 KECCAK256 SLOAD SWAP1 POP SWAP2 SWAP1 POP JUMP JUMPDEST PUSH1 0x1 PUSH0 CALLER PUSH20 0xFFFFFFFFFFFFFFFFFFFFFFFFFFFFFFFFFFFFFFFF AND PUSH20 0xFFFFFFFFFFFFFFFFFFFFFFFFFFFFFFFFFFFFFFFF AND DUP2 MSTORE PUSH1 0x20 ADD SWAP1 DUP2 MSTORE PUSH1 0x20 ADD PUSH0 KECCAK256 PUSH0 SWAP1 SLOAD SWAP1 PUSH2 0x100 EXP SWAP1 DIV PUSH1 0xFF AND ISZERO PUSH2 0x204 JUMPI PUSH1 0x40 MLOAD PUSH32 0x8C379A000000000000000000000000000000000000000000000000000000000 DUP2 MSTORE PUSH1 0x4 ADD PUSH2 0x1FB SWAP1 PUSH2 0x476 JUMP JUMPDEST PUSH1 0x40 MLOAD DUP1 SWAP2 SUB SWAP1 REVERT JUMPDEST PUSH1 0x1 DUP1 PUSH0 CALLER PUSH20 0xFFFFFFFFFFFFFFFFFFFFFFFFFFFFFFFFFFFFFFFF AND PUSH20 0xFFFFFFFFFFFFFFFFFFFFFFFFFFFFFFFFFFFFFFFF AND DUP2 MSTORE PUSH1 0x20 ADD SWAP1 DUP2 MSTORE PUSH1 0x20 ADD PUSH0 KECCAK256 PUSH0 PUSH2 0x100 EXP DUP2 SLOAD DUP2 PUSH1 0xFF MUL NOT AND SWAP1 DUP4 ISZERO ISZERO MUL OR SWAP1 SSTORE POP PUSH0 DUP1 DUP3 PUSH20 0xFFFFFFFFFFFFFFFFFFFFFFFFFFFFFFFFFFFFFFFF AND PUSH20 0xFFFFFFFFFFFFFFFFFFFFFFFFFFFFFFFFFFFFFFFF AND DUP2 MSTORE PUSH1 0x20 ADD SWAP1 DUP2 MSTORE PUSH1 0x20 ADD PUSH0 KECCAK256 PUSH0 DUP2 SLOAD DUP1 SWAP3 SWAP2 SWAP1 PUSH2 0x2A4 SWAP1 PUSH2 0x4C1 JUMP JUMPDEST SWAP2 SWAP1 POP SSTORE POP POP JUMP JUMPDEST PUSH0 PUSH1 0x20 MSTORE DUP1 PUSH0 MSTORE PUSH1 0x40 PUSH0 KECCAK256 PUSH0 SWAP2 POP SWAP1 POP SLOAD DUP2 JUMP JUMPDEST PUSH0 PUSH1 0x1 PUSH0 DUP4 PUSH20 0xFFFFFFFFFFFFFFFFFFFFFFFFFFFFFFFFFFFFFFFF AND PUSH20 0xFFFFFFFFFFFFFFFFFFFFFFFFFFFFFFFFFFFFFFFF AND DUP2 MSTORE PUSH1 0x20 ADD SWAP1 DUP2 MSTORE PUSH1 0x20 ADD PUSH0 KECCAK256 PUSH0 SWAP1 SLOAD SWAP1 PUSH2 0x100 EXP SWAP1 DIV PUSH1 0xFF AND SWAP1 POP SWAP2 SWAP1 POP JUMP JUMPDEST PUSH1 0x1 PUSH1 0x20 MSTORE DUP1 PUSH0 MSTORE PUSH1 0x40 PUSH0 KECCAK256 PUSH0 SWAP2 POP SLOAD SWAP1 PUSH2 0x100 EXP SWAP1 DIV PUSH1 0xFF AND DUP2 JUMP JUMPDEST PUSH0 DUP1 REVERT JUMPDEST PUSH0 PUSH20 0xFFFFFFFFFFFFFFFFFFFFFFFFFFFFFFFFFFFFFFFF DUP3 AND SWAP1 POP SWAP2 SWAP1 POP JUMP JUMPDEST PUSH0 PUSH2 0x35C DUP3 PUSH2 0x333 JUMP JUMPDEST SWAP1 POP SWAP2 SWAP1 POP JUMP JUMPDEST PUSH2 0x36C DUP2 PUSH2 0x352 JUMP JUMPDEST DUP2 EQ PUSH2 0x376 JUMPI PUSH0 DUP1 REVERT JUMPDEST POP JUMP JUMPDEST PUSH0 DUP2 CALLDATALOAD SWAP1 POP PUSH2 0x387 DUP2 PUSH2 0x363 JUMP JUMPDEST SWAP3 SWAP2 POP POP JUMP JUMPDEST PUSH0 PUSH1 0x20 DUP3 DUP5 SUB SLT ISZERO PUSH2 0x3A2 JUMPI PUSH2 0x3A1 PUSH2 0x32F JUMP JUMPDEST JUMPDEST PUSH0 PUSH2 0x3AF DUP5 DUP3 DUP6 ADD PUSH2 0x379 JUMP JUMPDEST SWAP2 POP POP SWAP3 SWAP2 POP POP JUMP JUMPDEST PUSH0 DUP2 SWAP1 POP SWAP2 SWAP1 POP JUMP JUMPDEST PUSH2 0x3CA DUP2 PUSH2 0x3B8 JUMP JUMPDEST DUP3 MSTORE POP POP JUMP JUMPDEST PUSH0 PUSH1 0x20 DUP3 ADD SWAP1 POP PUSH2 0x3E3 PUSH0 DUP4 ADD DUP5 PUSH2 0x3C1 JUMP JUMPDEST SWAP3 SWAP2 POP POP JUMP JUMPDEST PUSH0 DUP2 ISZERO ISZERO SWAP1 POP SWAP2 SWAP1 POP JUMP JUMPDEST PUSH2 0x3FD DUP2 PUSH2 0x3E9 JUMP JUMPDEST DUP3 MSTORE POP POP JUMP JUMPDEST PUSH0 PUSH1 0x20 DUP3 ADD SWAP1 POP PUSH2 0x416 PUSH0 DUP4 ADD DUP5 PUSH2 0x3F4 JUMP JUMPDEST SWAP3 SWAP2 POP POP JUMP JUMPDEST PUSH0 DUP3 DUP3 MSTORE PUSH1 0x20 DUP3 ADD SWAP1 POP SWAP3 SWAP2 POP POP JUMP JUMPDEST PUSH32 0x59612068617320766F7461646F20616E746572696F726D656E74650000000000 PUSH0 DUP3 ADD MSTORE POP JUMP JUMPDEST PUSH0 PUSH2 0x460 PUSH1 0x1B DUP4 PUSH2 0x41C JUMP JUMPDEST SWAP2 POP PUSH2 0x46B DUP3 PUSH2 0x42C JUMP JUMPDEST PUSH1 0x20 DUP3 ADD SWAP1 POP SWAP2 SWAP1 POP JUMP JUMPDEST PUSH0 PUSH1 0x20 DUP3 ADD SWAP1 POP DUP2 DUP2 SUB PUSH0 DUP4 ADD MSTORE PUSH2 0x48D DUP2 PUSH2 0x454 JUMP JUMPDEST SWAP1 POP SWAP2 SWAP1 POP JUMP JUMPDEST PUSH32 0x4E487B7100000000000000000000000000000000000000000000000000000000 PUSH0 MSTORE PUSH1 0x11 PUSH1 0x4 MSTORE PUSH1 0x24 PUSH0 REVERT JUMPDEST PUSH0 PUSH2 0x4CB DUP3 PUSH2 0x3B8 JUMP JUMPDEST SWAP2 POP PUSH32 0xFFFFFFFFFFFFFFFFFFFFFFFFFFFFFFFFFFFFFFFFFFFFFFFFFFFFFFFFFFFFFFFF DUP3 SUB PUSH2 0x4FD JUMPI PUSH2 0x4FC PUSH2 0x494 JUMP JUMPDEST JUMPDEST PUSH1 0x1 DUP3 ADD SWAP1 POP SWAP2 SWAP1 POP JUMP INVALID LOG2 PUSH5 0x6970667358 0x22 SLT KECCAK256 SLT 0xEA SUB 0xDE 0xE0 0xBE 0xB4 JUMP 0xA6 PUSH8 0xBFA9526A2CC124F7 DUP13 0xD3 CALLCODE COINBASE 0x2B PUSH28 0xE39C003BA0AA2C6764736F6C63430008180033000000000000000000 "
				},
				"gasEstimates": {
					"creation": {
						"codeDepositCost": "268400",
						"executionCost": "304",
						"totalCost": "268704"
					},
					"external": {
						"obtenerVotos(address)": "2807",
						"verificarSiVoto(address)": "2914",
						"votar(address)": "51486",
						"votos(address)": "2823",
						"yaVoto(address)": "2899"
					}
				},
				"methodIdentifiers": {
					"obtenerVotos(address)": "38ba84d8",
					"verificarSiVoto(address)": "b72c41e2",
					"votar(address)": "9332d2e6",
					"votos(address)": "996ee408",
					"yaVoto(address)": "f0b0bb28"
				}
			},
			"storageLayout": {
				"storage": [
					{
						"astId": 5,
						"contract": "Mappings.sol:Votacion",
						"label": "votos",
						"offset": 0,
						"slot": "0",
						"type": "t_mapping(t_address,t_uint256)"
					},
					{
						"astId": 9,
						"contract": "Mappings.sol:Votacion",
						"label": "yaVoto",
						"offset": 0,
						"slot": "1",
						"type": "t_mapping(t_address,t_bool)"
					}
				],
				"types": {
					"t_address": {
						"encoding": "inplace",
						"label": "address",
						"numberOfBytes": "20"
					},
					"t_bool": {
						"encoding": "inplace",
						"label": "bool",
						"numberOfBytes": "1"
					},
					"t_mapping(t_address,t_bool)": {
						"encoding": "mapping",
						"key": "t_address",
						"label": "mapping(address => bool)",
						"numberOfBytes": "32",
						"value": "t_bool"
					},
					"t_mapping(t_address,t_uint256)": {
						"encoding": "mapping",
						"key": "t_address",
						"label": "mapping(address => uint256)",
						"numberOfBytes": "32",
						"value": "t_uint256"
					},
					"t_uint256": {
						"encoding": "inplace",
						"label": "uint256",
						"numberOfBytes": "32"
					}
				}
			},
			"userdoc": {
				"kind": "user",
				"methods": {},
				"version": 1
			}
		}
	}
}